:03000000020006F5
:11005F00750800E4F509F50AF50BF50CF50D0200032A
:030003000200995F
:20007000AF82C2B1C2B0BF0502D2B0E4F509F50AF50BF50CF50D8F082275B1B475B2B4754B
:20009000CAEAC2CDC2B0C2B122120089E5975407FF8FF005F07F64E4FE3392D28008A2D2C9
:2000B000EE13FEEF13FFD5F0F57C647D020000008C028D031CBCFF011DEA4B70F08F048E4E
:2000D000051FBFFF011EEC4D70DF20B303750805E50824FB5003020219E50875F003A4902A
:2000F00000F3730201020201500201700201BD020207C2CDD2B10509E4B5090C050AB50A58
:2001100007050BB50B02050CE50DFF04F50D24FC5005B2B0750D00C3745895097402950A53
:20013000E4950BE4950C400302009C30B20975820312007002009C75820112007002009CA8
:20015000C2CDC2B0D2B1E4F509F50AF50BF50CF50D20B20302009C75820212007002009C9B
:20017000C2CDC2B00509E4B5090C050AB50A07050BB50B02050CE50DFF04F50D24FC50058E
:20019000B2B1750D00C374C89509E4950AE4950BE4950C400302009C20B20975820112007B
:2001B0007002009C75820312007002009CD2CD0509E4B5090C050AB50A07050BB50B020500
:2001D0000CE50DFF04F50D24FC5007B2B0B2B1750D00C374C89509E4950AE4950BE4950C25
:2001F000400302009C30B20975820412007002009C43C72002009CD2CDD2B0C2B130B203C7
:2002100002009C43C72002009CD2CDE50DFF04F50D24FC501030B106D2B0C2B18004C2B080
:11023000D2B1750D00E4F509F50AF50BF50C02009C38
:06003500E478FFF6D8FD9F
:200013007900E94400601B7A00900245780175A000E493F2A308B8000205A0D9F4DAF2754C
:02003300A0FF2C
:20003B007800E84400600A790175A000E4F309D8FC7800E84400600C7900900001E4F0A3C3
:04005B00D8FCD9FAFA
:0D00060075810D120241E5826003020003C6
:0402410075820022A0
:00000001FF
